:100000000C9434000C9451000C9451000C94510049
:100010000C9451000C9451000C9451000C942E013E
:100020000C9451000C9451000C9451000C9451000C
:100030000C9451000C9451000C9451000C945100FC
:100040000C9451000C9451000C9498030C94CC0324
:100050000C9451000C9451000C9451000C945100DC
:100060000C9451000C94510011241FBECFEFD8E026
:10007000DEBFCDBF11E0A0E0B1E0ECEAF8E002C0E5
:1000800005900D92A430B107D9F725E0A4E0B1E0C6
:1000900001C01D92A632B207E1F70E94BF000C9486
:1000A00054040C940000CF93DF93CDB7DEB780915A
:1000B000080190910901019649F080910801909101
:1000C00009010196909309018093080180910A012A
:1000D00090910B01009719F0019791F033C089E2DC
:1000E00090E0FC018081882F90E084709927892B13
:1000F00031F581E090E090930B0180930A011FC0DD
:1001000089E290E0FC018081882F90E0847099273B
:10011000892BB9F010920B0110920A01809108010D
:100120009091090165E070E00E94F80280E091E0A2
:100130000E94D902109209011092080102C0000029
:1001400001C000000000DF91CF910895CF93DF93AD
:10015000CDB7DEB78AE290E02AE230E0F9012081F3
:100160002B7FFC01208368E873E180E090E00E942F
:10017000D8000E9411040000DF91CF910895CF9321
:10018000DF93CDB7DEB70E94A600000080910C017E
:1001900090910D01892BD1F380910C0190910D016B
:1001A000019790930D0180930C010E945300EDCFB5
:1001B000CF93DF93CDB7DEB728970FB6F894DEBFA5
:1001C0000FBECDBF6D837E838F83988780EB90E0D9
:1001D00022E0FC01208381EB90E027E0FC012083FA
:1001E0008D819E81AF81B885880F991FAA1FBB1F83
:1001F000880F991FAA1FBB1F880F991FAA1FBB1F1B
:10020000880F991FAA1FBB1F072E7AE0B695A795E6
:10021000979587957A95D1F7702D89839A83AB83CB
:10022000BC8383EB90E02981FC01208380E790E090
:1002300022E0FC0120838FE590E02FE530E0F9011A
:1002400020812068FC012083000028960FB6F894D6
:10025000DEBF0FBECDBFDF91CF9108951F920F92E9
:1002600000905F000F9211248F939F93CF93DF93A1
:10027000CDB7DEB780910C0190910D01019690935E
:100280000D0180930C010000DF91CF919F918F9120
:100290000F9000925F000F901F901895CF93DF93FF
:1002A00000D0CDB7DEB79A83898389819A81089778
:1002B0002CF529813A8143E8429FC001439F900D6C
:1002C0001124825F9E4FFC01108229813A8143E80C
:1002D000429FC001439F900D1124815F9E4FFC01FE
:1002E000108229813A8143E8429FC001439F900DCB
:1002F0001124805F9E4FFC01108204C08FEF9FEF9E
:100300009A83898389819A810F900F90DF91CF9191
:100310000895CF93DF9300D000D000D0CDB7DEB7E3
:100320009C838B837E836D831A8219828B819C814F
:1003300008970CF081C02B813C8143E8429FC001AB
:10034000439F900D1124805F9E4FFC018081882384
:1003500009F472C02B813C8143E8429FC001439F56
:10036000900D1124825F9E4FFC018081882F90E0C8
:100370004B815C8163E8649F9001659F300D11247F
:10038000820F931F8F5E9E4FFC0120818D819E8185
:10039000FC0120832B813C8143E8429FC001439FA5
:1003A000900D1124825F9E4FFC01808141E0480F37
:1003B0002B813C8153E8529FC001539F900D112423
:1003C000825F9E4FFC0140832B813C8143E8429F2A
:1003D000C001439F900D1124825F9E4FFC018081DC
:1003E000882364F42B813C8143E8429FC001439FF2
:1003F000900D1124825F9E4FFC0110822B813C8165
:1004000043E8429FC001439F900D1124805F9E4F9F
:10041000FC0180814FEF480F2B813C8153E8529FB4
:10042000C001539F900D1124805F9E4FFC014083BB
:1004300081E090E09A83898389819A8126960FB61C
:10044000F894DEBF0FBECDBFDF91CF910895CF935B
:10045000DF9300D000D01F92CDB7DEB79C838B8393
:100460006D831A8219828B819C8108970CF07EC063
:100470002B813C8143E8429FC001439F900D112492
:10048000805F9E4FFC01808188230CF46FC02B811C
:100490003C8143E8429FC001439F900D1124815F3E
:1004A0009E4FFC018081882F90E04B815C8163E846
:1004B000649F9001659F300D1124820F931F8F5E02
:1004C0009E4F2D81FC0120832B813C8143E8429F7C
:1004D000C001439F900D1124815F9E4FFC018081DC
:1004E00041E0480F2B813C8153E8529FC001539F4C
:1004F000900D1124815F9E4FFC0140832B813C8134
:1005000043E8429FC001439F900D1124815F9E4F9D
:10051000FC018081882364F42B813C8143E8429F65
:10052000C001439F900D1124815F9E4FFC011082FA
:100530002B813C8143E8429FC001439F900D1124D1
:10054000805F9E4FFC01808141E0480F2B813C8100
:1005500053E8529FC001539F900D1124805F9E4F1E
:10056000FC01408381E090E09A83898389819A81AC
:100570000F900F900F900F900F90DF91CF910895F3
:10058000CF93DF931F92CDB7DEB78983698181E076
:1005900090E00E94270281EC90E021EC30E0F9012C
:1005A00020812062FC01208300000F90DF91CF9119
:1005B0000895CF93DF9300D0CDB7DEB79A838983B8
:1005C0000BC089819A819C012F5F3F4F3A83298319
:1005D000FC0180810E94C00289819A81FC01808196
:1005E000882379F700000F900F90DF91CF91089545
:1005F000CF93DF9300D000D000D0CDB7DEB79C837F
:100600008B837E836D8381E090E09A8389838D81E3
:100610009E81892BD1F10DC089819A81880F991F04
:100620009C01220F331F220F331F820F931F9A83C7
:1006300089838D819E8101979E838D838D819E818B
:10064000892B51F71EC029813A818B819C81B90188
:100650000E942C04CB01805D0E94C00229813A8156
:100660008B819C81B9010E942C049C838B8389819E
:100670009A812AE030E0B9010E944004CB019A83BC
:10068000898389819A81892BF1F6000026960FB61D
:10069000F894DEBF0FBECDBFDF91CF910895CF9309
:1006A000DF9300D000D0CDB7DEB79C838B831A8256
:1006B000198280EC90E0FC018081882364F486EC50
:1006C00090E0FC0120818B819C81FC01208381E0F2
:1006D00090E09A83898389819A810F900F900F907F
:1006E0000F90DF91CF910895CF93DF9300D01F92A9
:1006F000CDB7DEB78B831A82198280EC90E0FC01C3
:100700008081882F90E080729927892B49F086ECB0
:1007100090E02B81FC01208381E090E09A83898323
:1007200089819A810F900F900F90DF91CF9108955A
:100730001F920F9200905F000F9211242F933F930E
:100740004F935F936F937F938F939F93AF93BF93D9
:10075000EF93FF93CF93DF93CDB7DEB786EC90E0B6
:10076000FC018081682F80E090E00E942702000059
:10077000DF91CF91FF91EF91BF91AF919F918F91B9
:100780007F916F915F914F913F912F910F900092C8
:100790005F000F901F9018951F920F9200905F00BE
:1007A0000F9211242F933F934F935F936F937F93F7
:1007B0008F939F93AF93BF93EF93FF93CF93DF9369
:1007C0001F92CDB7DEB7CE010196BC0181E090E06B
:1007D0000E948901892B31F086EC90E02981FC018F
:1007E000208309C081EC90E021EC30E0F901208108
:1007F0002F7DFC01208300000F90DF91CF91FF91AE
:10080000EF91BF91AF919F918F917F916F915F9188
:100810004F913F912F910F9000925F000F901F908A
:100820001895CF93DF93CDB7DEB785EC90E0FC0150
:10083000108284EC90E027E6FC01208382EC90E0BB
:1008400026E0FC01208381EC90E028E9FC01208374
:100850000000DF91CF910895AA1BBB1B51E107C097
:10086000AA1FBB1FA617B70710F0A61BB70B881F40
:10087000991F5A95A9F780959095BC01CD010895CF
:1008800097FB072E16F4009407D077FD09D00E943D
:100890002C0407FC05D03EF4909581959F4F089558
:0C08A000709561957F4F0895F894FFCF8C
:0408AC000D0A000031
:00000001FF
